03300000        2000639367000311000000000000000                         FCA COMERCIO EXTERIOR E LOGISTBANCO SANTANDER                         123092021      000001040                                                                          
03300011R01  030 2000639367000311                    000000000000000     FCA COMERCIO EXTERIOR E LOGIST                                                                                0000000123092021                                         
0330001300001P 013297201300107120130010712  0000012345610511  1              0810202100000000000100000000 02N2309202110810202100000000000000300000000000000000000000000000000000000000000000000000012                       000200000           
0330001300002Q 012014253122000102GOPORTHOS AGENCIAMENTO DE CARGAS INTERNAAV PRESIDENTE KENNEDY 1386 SALA 44      CIDADE NOVA    13134170INDAIATUBA     SP0000000000000000                                        000000000000                   
0330001300003R 01000000000000000000000000                                                                                                                                                                                                       
