03300000        2000639367000150000000000000000                         FCA COMERCIO EXTERIOR E LOGISTBANCO SANTANDER                         114092021      000001040                                                                          
03300011R01  030 2000639367000150                    000000000000000     FCA COMERCIO EXTERIOR E LOGIST                                                                                0000000114092021                                         
0330001300001P 013297201300107120130010712  0000012345610511  1              2909202100000000002000000000 02N1409202112909202100000000000006712909202100000000000450000000000000000000000000000000012                       000200000           
0330001300002Q 012022491126000149CV LOG INTERNACIONAL LTDA               AVENIDA IPANEMA 122 SALA 04             VELEIROS       04773010SAO PAULO      SP0000000000000000                                        000000000000                   
0330001300003R 01000000000000000000000000               