03300000        2000639367000311329700005019222                         FCA COMERCIO EXTERIOR E LOGISTBANCO SANTANDER                         128092021      000001040                                                                          
03300011R01  030 2000639367000311                    329700005019222     FCA COMERCIO EXTERIOR E LOGIST                                                                                0000000128092021                                         
0330001300001P 013297201300107120130010712  0000000007870511  1              0910202100000001443722300000 02N2809202111310202100000000004812400000000000000000000000000000000000000000000000000000012                       000200000           
0330001300002Q 012010409614000347ALTA - AMERICA LATINA TECNOLOGIA AGRICOLROD PRESIDENTE CASTELO BRANCO 11100 KM 3BAIRRO DOS ALTO06421400BARUERI        SP0000000000000000                                        000000000000                   
0330001300003R 01000000000000000000000000                                                                                                                                                                                                       
