03300000        2000639367000311000000000000000                         FCA COMERCIO EXTERIOR E LOGISTBANCO SANTANDER                         116092021      000001040                                                                          
03300011R01  030 2000639367000311                    000000000000000     FCA COMERCIO EXTERIOR E LOGIST                                                                                0000000116092021                                         
0330001300001P 013297201300107120130010712  0000012345610511  1              0110202100000001443722300000 02N1609202110110202100000000004812400000000000000000000000000000000000000000000000000000012                       000200000           
0330001300002Q 012010409614000347ALTA - AMERICA LATINA TECNOLOGIA AGRICOLROD PRESIDENTE CASTELO BRANCO 11100 KM 3BAIRRO DOS ALTO06421400BARUERI        SP0000000000000000                                        000000000000                   
0330001300003R 01000000000000000000000000                        101102021000000000288744                                                                                                                                                       
0330001300004P 013297201300107120130010712  0000012345628511  2              0110202100000001443722300000 02N1609202110110202100000000004812400000000000000000000000000000000000000000000000000000012                       000200000           
0330001300005Q 012010409614000347ALTA - AMERICA LATINA TECNOLOGIA AGRICOLROD PRESIDENTE CASTELO BRANCO 11100 KM 3BAIRRO DOS ALTO06421400BARUERI        SP0000000000000000                                        000000000000                   
0330001300006R 01000000000000000000000000                        101102021000000000288744                                                                                                                                                       
03300015         000008                                                                                                                                                                                                                         
