03300000        2000639367000150032970000501922                         FCA                           BANCO SANTANDER                         104082021      000001040                                                                          
03300011R01  030 2000639367000150                    032970000501922     FCA                                                                                                           0000000104082021                                         
0330001300001P 013297201300107120130010712  0000012345610511  1              1908202100000000002000000000 02N0408202111908202100000000000006711908202100000000000450000000000000000000000000000000012                       000200000           
0330001300002Q 012061309746000338PROGERAL INDUSTRIA DE ARTEFATOS PLASTICORUA WALTER BARUFALDI  300               DISTRITO INDUST18560000SANTOS         SP0000000000000000                                        000000000000                   
0330001300003R 01000000000000000000000000               